:020000040800F2
:1000000000280020C10F0008750E00087B0E0008B4
:10001000810E0008870E00088D0E00080000000009
:10002000000000000000000000000000930E000827
:100030009F0E000800000000AB0E0008B70E00087D
:10004000091000080910000809100008091000082C
:10005000091000080910000809100008091000081C
:10006000091000080910000809100008091000080C
:1000700009100008091000080910000809100008FC
:1000800009100008091000080910000809100008EC
:1000900009100008091000080910000809100008DC
:1000A00009100008091000080910000809100008CC
:1000B000C50E000809100008000000000910000823
:1000C00009100008000000000000000009100008EE
:1000D00000000000091000080910000800000000DE
:1000E00009100008091000080910000800000000AD
:1000F0000000000000000000000000000000000000
:0C01000000000000000000005FF808F1A3
:10010C0010B5054C237833B9044B13B10448AFF345
:10011C0000800123237010BD20000020000000008F
:10012C002026000808B5034B1BB103490348AFF365
:10013C00008008BD000000002400002020260008DC
:10014C0080B483B000AF0346FB71FB79092B04D854
:10015C00FB79044AD25C044B1A7000BF0C37BD46C5
:10016C0080BC7047382600083C00002080B582B067
:10017C0000AF7860154A7B6813441B781846FFF76C
:10018C00DFFF7B68032B1BD801A252F823F000BFC2
:10019C00AD010008B5010008BD010008C50100084B
:1001AC000B4B0E221A700CE0094B0D221A7008E052
:1001BC00074B0B221A7004E0054B07221A7000E063
:1001CC0000BF00BF0837BD4680BD00BF48000020FF
:1001DC003D00002080B500AF094B1B78022B04D8E2
:1001EC00074B1B780133DBB200E00023044A137089
:1001FC00034B1B781846FFF7B9FF00BF80BD00BF4B
:10020C000000002080B400AF0A4B1B781A030A4B85
:10021C001B781B011A43094BDA60094B1B781B0234
:10022C00084A12781A43084BDA6000BFBD4680BCFE
:10023C00704700BF4F0000204E0000200008014016
:10024C003D0000203C000020000C014080B500AFB8
:10025C00944B1B78042B00F2FF8101A252F823F07F
:10026C008102000897030008E7030008ED0400086A
:10027C00B10500088C4B1A788C4B1A708C4B1A7881
:10028C008C4B1A708C4B1A788C4B1A70864B1B78D3
:10029C001A46874B1B781946874B1B780B449A429E
:1002AC0008DD814B1A78824B1B78D31ADAB2824B59
:1002BC001A7024E07C4B1B781A467D4B1B78194630
:1002CC007D4B1B780B449A4219DA7B4B1B781A46F0
:1002DC00774B1B781344632B09DD734B63221A7025
:1002EC00754B60221A70724B03221A7007E0724B26
:1002FC001A786F4B1B781344DAB26B4B1A706A4B3B
:10030C001A786F4B1A706C4B1A786E4B1A706E4BC6
:10031C0000221A706A4B1B786C4AA2FB0323DB0881
:10032C00DAB26B4B1A70664B1A78684BA3FB02134C
:10033C00D9080B469B000B445B00D31ADAB2644B12
:10034C005A70604B1B78614AA2FB0323DB08DAB2BC
:10035C005F4B9A705B4B1A785C4BA3FB0213D9086A
:10036C000B469B000B445B00D31ADAB2584BDA7085
:10037C00584B00221A70574B00225A70554B0022D2
:10038C009A70484B01221A7066E1002000F096FB2F
:10039C000346002B02D04F4B01221A70002000F0B4
:1003AC008DFB0346002B40F050814A4B1B78002BF1
:1003BC0000F04B813B4B02221A70474B06221A70FD
:1003CC00464B06221A70434B00221A70414B0022F6
:1003DC005A70404B00229A7037E1002000F06EFBFF
:1003EC000346002B02D03B4B01221A70002000F078
:1003FC0065FB0346002B15D1364B1B78002B11D017
:10040C00284B03221A70344B03221A70334B0322ED
:10041C001A70304B00221A702E4B00225A702D4B42
:10042C0000229A70012000F049FB0346002B02D0F9
:10043C00284B01225A70012000F040FB0346002B90
:10044C0012D1244B5B78002B0ED0184B1B78622BEF
:10045C0004D8164B1B780133DBB200E00123134A9E
:10046C0013701C4B00225A70022000F027FB03462D
:10047C00002B02D0174B01229A70022000F01EFBB9
:10048C000346002B40F0E380124B9B78002B00F0CE
:10049C00DE80064B1A78044B1A700E4B00229A70B1
:1004AC00D5E000BF3E0000200100002051000020DC
:1004BC00020000204100002003000020400000202A
:1004CC00500000204C0000204D000020CDCCCCCCA6
:1004DC0048000020440000204F0000204E00002067
:1004EC00002000F0EBFA0346002B02D05B4B0122FC
:1004FC001A70002000F0E2FA0346002B15D1574B7E
:10050C001B78002B11D0564B04221A70554B03222A
:10051C001A70554B03221A70504B00221A704F4B15
:10052C0000225A704D4B00229A70012000F0C6FA3E
:10053C000346002B02D0494B01225A70012000F0D7
:10054C00BDFA0346002B12D1444B5B78002B0ED026
:10055C00464B1B78622B04D8444B1B780133DBB21F
:10056C0000E00123414A13703C4B00225A700220D8
:10057C0000F0A4FA0346002B02D0384B01229A70EB
:10058C00022000F09BFA0346002B62D1334B9B7880
:10059C00002B5ED0354B1A78354B1A702F4B02223C
:1005AC009A7056E0002000F089FA0346002B02D026
:1005BC002A4B01221A70002000F080FA0346002B0F
:1005CC0006D1264B1B78002B02D0254B00221A702B
:1005DC00012000F073FA0346002B02D01F4B0122BE
:1005EC005A70012000F06AFA0346002B12D11B4B03
:1005FC005B78002B0ED01F4B1B78622B04D81D4B45
:10060C001B780133DBB200E001231A4A1370134B41
:10061C0000225A70022000F051FA0346002B02D03F
:10062C000E4B01229A70022000F048FA0346002B70
:10063C0011D10A4B9B78002B0DD00E4B1A780E4B18
:10064C001A70064B00229A7005E000BF04E000BF50
:10065C0002E000BF00E000BF00BF80BD44000020EE
:10066C003E0000204F0000204E00002041000020E2
:10067C0002000020400000200300002080B400AFE6
:10068C003B4B1B78042B2CD0042B3DDC022B02D0D3
:10069C00032B13D038E0374B1B78062B01D10722E4
:1006AC0000E00622334B1A70334B1B78062B01D11A
:1006BC00072200E00622304B1A7025E02D4B1B78E8
:1006CC00052B01D1072200E005222A4B1A702A4B78
:1006DC001B78052B01D1072200E00522264B1A704E
:1006EC0012E0244B1B78032B01D1072200E00322DC
:1006FC00204B1A70204B1B78032B01D1072200E0F2
:10070C0003221D4B1A7000BF194B1B78012B2BD1E8
:10071C001A4B1B78032B28D801A252F823F000BFE8
:10072C003D0700084B070008590700086707000839
:10073C00104B06221A70104B03221A7015E00D4B49
:10074C0006221A700C4B05221A700EE0094B03227C
:10075C001A70094B06221A7007E0064B05221A7014
:10076C00054B06221A7000E000BFBD4680BC7047E6
:10077C003E0000204F0000204E0000204D000020C5
:10078C0080B400AF954B1B78042B65D0042B00F381
:10079C009280022B02D0032B2FD08CE0904B1B7835
:1007AC00904AA2FB0323DB08DAB28F4B1A708C4BF6
:1007BC001A788C4BA3FB0213D9080B469B000B44F5
:1007CC005B00D31ADAB2884B5A70854B1B78854A7A
:1007DC00A2FB0323DB08DAB2834B9A70804B1A78A6
:1007EC00804BA3FB0213D9080B469B000B445B0008
:1007FC00D31ADAB27C4BDA705DE07C4B1B78794A09
:10080C00A2FB0323DB08DAB2774B1A70774B1A780A
:10081C00744BA3FB0213D9080B469B000B445B00E3
:10082C00D31ADAB2704B5A70704B1B786D4AA2FB1C
:10083C000323DB08DAB26C4B9A706C4B1A78694B59
:10084C00A3FB0213D9080B469B000B445B00D31A85
:10085C00DAB2654BDA702EE0654B1B78614AA2FB6D
:10086C000323DB08DAB2604B1A70614B1A785D4BCC
:10087C00A3FB0213D9080B469B000B445B00D31A55
:10088C00DAB2594B5A705A4B1B78564AA2FB0323C7
:10089C00DB08DAB2544B9A70554B1A78514BA3FBC8
:1008AC000213D9080B469B000B445B00D31ADAB237
:1008BC004D4BDA7000BF494B1B78012B40F08A80FE
:1008CC004C4B1B78013BDAB24A4B1A704A4B1B78E3
:1008DC00013BDAB2484B1A70484B1B78032B4AD8B1
:1008EC0001A252F823F000BF050900081D090008F9
:1008FC003D090008550900083F4B1B78002B33D1EC
:10090C003E4B01221A703E4B1A783B4B1A702BE06F
:10091C00384B1B78002B29D1384B02221A70394BDB
:10092C001A78344B1A70384B1A78334B1A701DE006
:10093C00304B1B78002B1BD1304B03221A70304BE1
:10094C001A782C4B1A7013E02B4B1B78002B11D1FF
:10095C002A4B00221A702C4B1A78264B1A70294BF2
:10096C001A78254B1A7005E000BF04E000BF02E0C6
:10097C0000BF00E000BF1F4B1B781A4AA2FB0323E9
:10098C00DB08DAB2184B1A701A4B1A78154BA3FB0A
:10099C000213D9080B469B000B445B00D31ADAB246
:1009AC00114B5A70144B1B780E4AA2FB0323DB0825
:1009BC00DAB20D4B9A70104B1A780A4BA3FB021348
:1009CC00D9080B469B000B445B00D31ADAB2064BDA
:1009DC00DA7000E000BFBD4680BC70473E000020CE
:1009EC0051000020CDCCCCCC480000204100002090
:1009FC0040000020500000204C0000204D00002042
:100A0C0002000020030000200100002090B583B0FC
:100A1C0000AF0023FB713FE0FA79FB792249895C36
:100A2C00224AD154FA79FB792149895C1E4AD15466
:100A3C00FA79FB791F49895C1D4AD154FB79022B49
:100A4C001CD0022B25DC002B02D0012B0BD020E07C
:100A5C00FC794FF48071184800F0BCFD03461A462F
:100A6C00144B1A5515E0FC794FF40071124800F044
:100A7C00B1FD03461A460F4B1A550AE0FC794FF4A8
:100A8C0080610D4800F0A6FD03461A46094B1A5525
:100A9C0000BFFB790133FB71FB79022BBCD900BF82
:100AAC0000BF0C37BD4690BD0C000020100000208C
:100ABC0008000020040000200008014080B483B02E
:100ACC0000AF0346FB71FB79022B01D9002307E031
:100ADC00FB79064AD35C002B0CBF01230023DBB24D
:100AEC0018460C37BD4680BC704700BF1000002074
:100AFC0080B500AF00F084FA00F064F800F09EF8C6
:100B0C0000F0E8F82D4801F0C1F900F0E5F90021FA
:100B1C00152000F0FFF901211F2000F0FBF9022144
:100B2C00332000F0F7F90321472000F0F3F90421FA
:100B3C006F2000F0EFF90521832000F0EBF9204B3A
:100B4C001B78012B05D100210A2000F0E3F9FFF7F7
:100B5C005DFF1B4B5B78012B05D10121322000F08E
:100B6C00D9F9FFF773FB164B9B78012B06D10221A9
:100B7C004FF47A7000F0CEF9FFF702FE104BDB78E1
:100B8C00012B05D10321FA2000F0C4F9FFF776FD03
:100B9C000B4B1B79012B05D10421FA2000F0BAF97B
:100BAC00FFF718FB064B5B79012BC8D105210A20F6
:100BBC0000F0B0F9FFF726FBC1E700BF540000209E
:100BCC009C00002080B590B000AF07F118032822DC
:100BDC000021184601F016FD3B1D00221A605A60D8
:100BEC009A60DA601A610223BB610123BB62102395
:100BFC00FB6200237B6307F11803184600F01AFD13
:100C0C000346002B01D000F0D3F80F237B600023A8
:100C1C00BB600023FB6000233B6100237B613B1D19
:100C2C000021184600F086FF0346002B01D000F08F
:100C3C00BFF800BF4037BD4680BD000080B586B010
:100C4C0000AF07F1080300221A605A609A60DA605C
:100C5C003B4600221A605A601D4B4FF080421A60CE
:100C6C001B4B41F63F725A60194B00229A60184B8D
:100C7C000922DA60164B00221A61154B00229A6188
:100C8C00134801F0B3F80346002B01D000F090F8A4
:100C9C004FF48053BB6007F1080319460C4801F070
:100CAC0049FA0346002B01D000F082F800233B6088
:100CBC0000237B603B461946054801F015FC0346B2
:100CCC00002B01D000F074F800BF1837BD4680BD72
:100CDC005400002080B586B000AF07F10803002255
:100CEC001A605A609A60DA60294B9B69284A43F073
:100CFC0004039361264B9B6903F004037B607B68C0
:100D0C00234B9B69224A43F008039361204B9B6958
:100D1C0003F008033B603B68002247F270011D485A
:100D2C0000F06FFC002240F67F711B4800F069FC5C
:100D3C0047F27003BB600123FB6000233B6102237D
:100D4C007B6107F108031946124800F0C9FA40F616
:100D5C007F73BB600123FB6000233B6102237B613B
:100D6C0007F1080319460C4800F0BAFA4FF4E06397
:100D7C00BB600023FB6000233B6107F108031946AD
:100D8C00044800F0ADFA00BF1837BD4680BD00BF67
:100D9C000010024000080140000C014080B582B0F8
:100DAC0000AF786000F0DAF800BF0837BD4680BDB0
:100DBC0080B400AF72B600BFFEE7000080B485B00F
:100DCC0000AF154B9B69144A43F001039361124B1E
:100DDC009B6903F00103BB60BB680F4BDB690E4AD8
:100DEC0043F08053D3610C4BDB6903F080537B6081
:100DFC007B680A4B5B68FB60FB6823F0E063FB607D
:100E0C00FB6843F08063FB60044AFB68536000BFDF
:100E1C001437BD4680BC70470010024000000140F2
:100E2C0080B584B000AF78607B681B68B3F1804FED
:100E3C0013D10C4BDB690B4A43F00103D361094B13
:100E4C00DB6903F00103FB60FB68002200211C201E
:100E5C0000F00FFA1C2000F028FA00BF1037BD4636
:100E6C0080BD00BF0010024080B400AFFEE780B42C
:100E7C0000AFFEE780B400AFFEE780B400AFFEE742
:100E8C0080B400AFFEE780B400AF00BFBD4680BCAD
:100E9C00704780B400AF00BFBD4680BC704780B4C3
:100EAC0000AF00BFBD4680BC704780B500AF00F0FE
:100EBC00EDF800BF80BD000080B500AF024801F026
:100ECC0031F800BF80BD00BF5400002080B400AFDB
:100EDC0000BFBD4680BC704780B483B000AF002318
:100EEC00FB710AE0FB79094A0021D154FB79084ACD
:100EFC000021D154FB790133FB71FB79062BF1D91D
:100F0C0000BF00BF0C37BD4680BC7047A40000205A
:100F1C009C00002080B483B000AF03460A46FB80DF
:100F2C0013467B717B79062B0DD8FB88084AA2FBF4
:100F3C000323DB089AB27B79D1B2064AD1547B7970
:100F4C00054A0021D15400BF0C37BD4680BC704708
:100F5C00CDCCCCCCA40000209C00002080B483B06D
:100F6C0000AF0023FB7117E0FB79104AD35C002B18
:100F7C000FD0FB790D4AD25C013AD1B20B4AD15455
:100F8C00FB790A4AD35C002B03D1FB79084A012177
:100F9C00D154FB790133FB71FB79062BE4D900BFEB
:100FAC0000BF0C37BD4680BC704700BFA4000020BA
:100FBC009C000020FFF78AFF0B480C490C4A0023C9
:100FCC0002E0D458C4500433C4188C42F9D3094AF3
:100FDC00094C002301E013600432A242FBD301F060
:100FEC00EDFAFFF785FD704700000020200000207F
:100FFC007026000820000020B0000020FEE7000052
:10100C0080B500AF084B1B68074A43F01003136010
:10101C00032000F023F90F2000F008F8FFF7CEFEB4
:10102C000023184680BD00BF0020024080B582B06E
:10103C0000AF7860124B1A68124B1B7819464FF4AC
:10104C007A73B3FBF1F3B2FBF3F3184600F03BF900
:10105C000346002B01D001230EE07B680F2B0AD82E
:10106C00002279684FF0FF3000F003F9064A7B68E4
:10107C001360002300E0012318460837BD4680BDED
:10108C00140000201C0000201800002080B400AFC9
:10109C00054B1B781A46054B1B681344034A136017
:1010AC0000BFBD4680BC70471C000020AC00002077
:1010BC0080B400AF024B1B681846BD4680BC70471D
:1010CC00AC00002080B485B000AF78607B6803F082
:1010DC000703FB600C4BDB68BB60BA684FF6FF0381
:1010EC001340BB60FB681A02BB68134343F0BF6339
:1010FC0043F40033BB60044ABB68D36000BF1437B1
:10110C00BD4680BC704700BF00ED00E080B400AF6E
:10111C00044BDB681B0A03F007031846BD4680BC72
:10112C00704700BF00ED00E080B483B000AF034611
:10113C00FB7197F90730002B0BDBFB7903F01F02D7
:10114C00064997F907305B09012000FA02F241F8D1
:10115C00232000BF0C37BD4680BC704700E100E087
:10116C0080B483B000AF03463960FB7197F9073048
:10117C00002B0ADB3B68DAB20C4997F907301201F5
:10118C00D2B20B4483F800230AE03B68DAB2084978
:10119C00FB7903F00F03043B1201D2B20B441A7615
:1011AC0000BF0C37BD4680BC704700BF00E100E0BB
:1011BC0000ED00E080B489B000AFF860B9607A60EF
:1011CC00FB6803F00703FB61FB69C3F10703042B06
:1011DC0028BF0423BB61FB690433062B02D9FB69CE
:1011EC00033B00E000237B614FF0FF32BB6902FA46
:1011FC0003F3DA43BB681A407B699A404FF0FF3126
:10120C007B6901FA03F3D9437B680B4013431846FF
:10121C002437BD4680BC704780B582B000AF786083
:10122C007B68013BB3F1807F01D301230FE00A4AB5
:10123C007B68013B53600F214FF0FF30FFF790FFAD
:10124C00054B00229A60044B07221A6000231846B3
:10125C000837BD4680BD00BF10E000E080B582B00D
:10126C0000AF78607868FFF72DFF00BF0837BD46E8
:10127C0080BD80B586B000AF0346B9607A60FB7361
:10128C0000237B61FFF742FF78617A68B96878695F
:10129C00FFF790FF024697F90F3011461846FFF7FB
:1012AC005FFF00BF1837BD4680BD80B582B000AF70
:1012BC000346FB7197F907301846FFF735FF00BF5F
:1012CC000837BD4680BD80B582B000AF78607868C5
:1012DC00FFF7A2FF034618460837BD4680BD000045
:1012EC0080B48BB000AF7860396000237B62002340
:1012FC003B6248E101227B6A02FA03F3FB613B6823
:10130C001B68FA691340BB61BA69FB699A4240F0E9
:10131C0037813B685B68A34A93425ED0A14A9342F3
:10132C0075D8A14A934258D09F4A93426FD89F4A8E
:10133C00934252D09D4A934269D89D4A93424CD0D5
:10134C009B4A934263D89B4A934246D0994A934214
:10135C005DD8122B2AD8122B59D801A252F823F09F
:10136C00E7130008C1130008D31300081514000874
:10137C001B1400081B1400081B1400081B14000885
:10138C001B1400081B1400081B1400081B14000875
:10139C001B1400081B1400081B1400081B14000865
:1013AC001B140008C9130008DD130008824A93427D
:1013BC0013D02CE03B68DB683B6229E03B68DB68C0
:1013CC0004333B6224E03B68DB6808333B621FE07C
:1013DC003B68DB680C333B621AE03B689B68002B74
:1013EC0002D104233B6213E03B689B68012B05D1BF
:1013FC0008233B627B68FA691A6109E008233B62A7
:10140C007B68FA695A6103E000233B6200E000BF8D
:10141C00BB69FF2B01D87B6801E07B6804337B61DF
:10142C00BB69FF2B02D87B6A9B0002E07B6A083BFE
:10143C009B003B617B691A680F213B6901FA03F33E
:10144C00DB431A40396A3B6901FA03F31A437B699F
:10145C001A603B685B6803F08053002B00F09080AF
:10146C00564B9B69554A43F001039361534B9B695F
:10147C0003F00103BB60BB68514A7B6A9B080233D3
:10148C0052F82330FB607B6A03F003039B000F22AE
:10149C0002FA03F3DB43FA681340FB607B68494AAA
:1014AC0093420DD07B68484A934207D07B68474AE9
:1014BC00934201D1022304E0032302E0012300E064
:1014CC0000237A6A02F0030292009340FA681343F5
:1014DC00FB603B497B6A9B080233FA6841F8232086
:1014EC003B685B6803F48013002B06D0384B9A687A
:1014FC003749BB6913438B6006E0354B9A68BB696F
:10150C00DB43334913408B603B685B6803F4001387
:10151C00002B06D02E4BDA682D49BB691343CB60E8
:10152C0006E02B4BDA68BB69DB4329491340CB60DF
:10153C003B685B6803F40033002B06D0244B5A68DD
:10154C002349BB6913434B6006E0214B5A68BB69C6
:10155C00DB431F4913404B603B685B6803F48033EB
:10156C00002B06D01A4B1A681949BB6913430B6040
:10157C0006E0174B1A68BB69DB43154913400B6037
:10158C007B6A01337B623B681A687B6A22FA03F33D
:10159C00002B7FF4AFAE00BF00BF2C37BD4680BC24
:1015AC00704700BF00003210000031100000221004
:1015BC000000211000001210000011100010024059
:1015CC000000014000080140000C014000100140E7
:1015DC000004014080B485B000AF78600B467B807E
:1015EC007B689A687B881340002B02D00123FB7325
:1015FC0001E00023FB73FB7B18461437BD4680BC0F
:10160C00704780B483B000AF78600B467B80134684
:10161C007B707B78002B03D07A887B681A6103E09F
:10162C007B881A047B681A6100BF0C37BD4680BCEE
:10163C007047000080B586B000AF78607B68002BE7
:10164C0001D101236CE27B681B6803F00103002BC2
:10165C0000F08780924B5B6803F00C03042B0CD0DA
:10166C008F4B5B6803F00C03082B12D18C4B5B681F
:10167C0003F48033B3F5803F0BD1894B1B6803F423
:10168C000033002B6CD07B685B68002B68D1012386
:10169C0046E27B685B68B3F5803F06D1804B1B68E4
:1016AC007F4A43F4803313602EE07B685B68002B29
:1016BC000CD17B4B1B687A4A23F480331360784B34
:1016CC001B68774A23F4802313601DE07B685B68FA
:1016DC00B3F5A02F0CD1724B1B68714A43F48023D5
:1016EC0013606F4B1B686E4A43F4803313600BE03E
:1016FC006B4B1B686A4A23F480331360684B1B687E
:10170C00674A23F4802313607B685B68002B13D03B
:10171C00FFF7CEFC386108E0FFF7CAFC02463B69D4
:10172C00D31A642B01D90323FAE15D4B1B6803F434
:10173C000033002BF0D014E0FFF7BAFC386108E05E
:10174C00FFF7B6FC02463B69D31A642B01D903237D
:10175C00E6E1534B1B6803F40033002BF0D100E09F
:10176C0000BF7B681B6803F00203002B63D04C4B5B
:10177C005B6803F00C03002B0BD0494B5B6803F048
:10178C000C03082B1CD1464B5B6803F48033002BF5
:10179C0016D1434B1B6803F00203002B05D07B686A
:1017AC001B69012B01D00123BAE13D4B1B6823F0CF
:1017BC00F8027B685B69DB00394913430B603AE044
:1017CC007B681B69002B20D0364B01221A60FFF777
:1017DC006FFC386108E0FFF76BFC02463B69D31ADB
:1017EC00022B01D903239BE12D4B1B6803F0020351
:1017FC00002BF0D02A4B1B6823F0F8027B685B6946
:10180C00DB00274913430B6015E0264B00221A60BE
:10181C00FFF74EFC386108E0FFF74AFC02463B69D3
:10182C00D31A022B01D903237AE11D4B1B6803F059
:10183C000203002BF0D17B681B6803F00803002B1C
:10184C003AD07B689B69002B19D0174B01221A6088
:10185C00FFF72EFC386108E0FFF72AFC02463B69D3
:10186C00D31A022B01D903235AE10D4B5B6A03F007
:10187C000203002BF0D0012000F09AFA1CE00A4B76
:10188C0000221A60FFF714FC38610FE0FFF710FC20
:10189C0002463B69D31A022B08D9032340E100BF4F
:1018AC000010024000004242800442429E4B5B6AA0
:1018BC0003F00203002BE9D17B681B6803F00403DF
:1018CC00002B00F0A6800023FB75974BDB6903F01F
:1018DC008053002B0DD1944BDB69934A43F080531A
:1018EC00D361914BDB6903F08053BB60BB68012370
:1018FC00FB758E4B1B6803F48073002B18D18B4B3C
:10190C001B688A4A43F480731360FFF7D1FB38617C
:10191C0008E0FFF7CDFB02463B69D31A642B01D9D3
:10192C000323FDE0814B1B6803F48073002BF0D084
:10193C007B68DB68012B06D17B4B1B6A7A4A43F030
:10194C00010313622DE07B68DB68002B0CD1764B16
:10195C001B6A754A23F001031362734B1B6A724AAC
:10196C0023F0040313621CE07B68DB68052B0CD1AD
:10197C006D4B1B6A6C4A43F0040313626A4B1B6A7F
:10198C00694A43F0010313620BE0674B1B6A664A1A
:10199C0023F001031362644B1B6A634A23F00403B4
:1019AC0013627B68DB68002B15D0FFF781FB386175
:1019BC000AE0FFF77DFB02463B69D31A41F28832FD
:1019CC00934201D90323ABE0574B1B6A03F002038C
:1019DC00002BEED014E0FFF76BFB38610AE0FFF749
:1019EC0067FB02463B69D31A41F28832934201D914
:1019FC00032395E04C4B1B6A03F00203002BEED142
:101A0C00FB7D012B05D1484BDB69474A23F0805302
:101A1C00D3617B68DB69002B00F08180424B5B68F3
:101A2C0003F00C03082B61D07B68DB69022B46D1D9
:101A3C003F4B00221A60FFF73BFB386108E0FFF7D1
:101A4C0037FB02463B69D31A022B01D9032367E00B
:101A5C00354B1B6803F00073002BF0D17B681B6ABD
:101A6C00B3F5803F08D1304B5B6823F400327B68C0
:101A7C009B682D4913434B602B4B5B6823F474120A
:101A8C007B68196A7B685B6A0B43274913434B607D
:101A9C00274B01221A60FFF70BFB386108E0FFF7B8
:101AAC0007FB02463B69D31A022B01D9032337E00B
:101ABC001D4B1B6803F00073002BF0D02FE01C4B68
:101ACC0000221A60FFF7F4FA386108E0FFF7F0FA29
:101ADC0002463B69D31A022B01D9032320E0124B97
:101AEC001B6803F00073002BF0D118E07B68DB69F6
:101AFC00012B01D1012313E00B4B5B68FB60FB68EE
:101B0C0003F480327B681B6A9A4206D1FB6803F4AB
:101B1C0070127B685B6A9A4201D0012300E00023BB
:101B2C0018461837BD4680BD0010024000700040BA
:101B3C006000424280B584B000AF786039607B6849
:101B4C00002B01D10123D0E06A4B1B6803F0070383
:101B5C003A689A4210D9674B1B6823F00702654913
:101B6C003B6813430B60634B1B6803F007033A6835
:101B7C009A4201D00123B8E07B681B6803F0020392
:101B8C00002B20D07B681B6803F00403002B05D0CE
:101B9C00594B5B68584A43F4E06353607B681B689D
:101BAC0003F00803002B05D0534B5B68524A43F4F7
:101BBC0060535360504B5B6823F0F0027B689B686A
:101BCC004D4913434B607B681B6803F00103002BEA
:101BDC0040D07B685B68012B07D1474B1B6803F433
:101BEC000033002B15D101237FE07B685B68022B4F
:101BFC0007D1414B1B6803F00073002B09D1012363
:101C0C0073E03D4B1B6803F00203002B01D1012351
:101C1C006BE0394B5B6823F003027B685B683649E9
:101C2C0013434B60FFF744FAF8600AE0FFF740FA01
:101C3C000246FB68D31A41F28832934201D903233E
:101C4C0053E02D4B5B6803F00C027B685B689B00D8
:101C5C009A42EBD1274B1B6803F007033A689A4270
:101C6C0010D2244B1B6823F0070222493B68134314
:101C7C000B60204B1B6803F007033A689A4201D0B3
:101C8C00012332E07B681B6803F00403002B08D0AF
:101C9C00194B5B6823F4E0627B68DB6816491343DD
:101CAC004B607B681B6803F00803002B09D0124BB8
:101CBC005B6823F460527B681B69DB000E4913439D
:101CCC004B6000F021F802460B4B5B681B0903F0DC
:101CDC000F030A49CB5C22FA03F3094A1360094B40
:101CEC001B681846FFF7A2F9002318461037BD46AB
:101CFC0080BD00BF002002400010024044260008B6
:101D0C00140000201800002080B487B000AF00231E
:101D1C00FB600023BB6000237B6100237B600023FE
:101D2C003B611E4B5B68FB60FB6803F00C03042BF0
:101D3C0002D0082B03D027E0194B3B6127E0FB684E
:101D4C009B0C03F00F03174AD35C7B60FB6803F416
:101D5C008033002B10D0114B5B685B0C03F001033C
:101D6C00114AD35CBB607B680D4A02FB03F2BB6873
:101D7C00B2FBF3F37B6104E07B680C4A02FB03F3D8
:101D8C007B617B693B6102E0054B3B6100BF3B69BA
:101D9C0018461C37BD4680BC704700BF001002407F
:101DAC0000127A00542600086426000800093D0041
:101DBC0080B485B000AF78600A4B1B680A4AA2FB5E
:101DCC0003235B0A7A6802FB03F3FB6000BFFB682A
:101DDC005A1EFA60002BF9D100BF00BF1437BD4664
:101DEC0080BC704714000020D34D621080B582B0C7
:101DFC0000AF78607B68002B01D1012341E07B6848
:101E0C0093F83D30DBB2002B06D17B68002283F8BF
:101E1C003C207868FFF704F87B68022283F83D20A9
:101E2C007B681A687B6804331946104600F06EFA1A
:101E3C007B68012283F846207B68012283F83E20D0
:101E4C007B68012283F83F207B68012283F84020C5
:101E5C007B68012283F841207B68012283F84220B1
:101E6C007B68012283F843207B68012283F844209D
:101E7C007B68012283F845207B68012283F83D2092
:101E8C00002318460837BD4680BD000080B485B0DD
:101E9C0000AF78607B6893F83D30DBB2012B01D04A
:101EAC00012335E07B68022283F83D207B681B68A8
:101EBC00DA687B681B6842F00102DA607B681B6899
:101ECC00164A934209D07B681B68B3F1804F04D04B
:101EDC007B681B68124A934211D17B681B689B6814
:101EEC0003F00703FB60FB68062B10D07B681B68B4
:101EFC001A687B681B6842F001021A6007E07B6875
:101F0C001B681A687B681B6842F001021A60002388
:101F1C0018461437BD4680BC704700BF002C0140EA
:101F2C000004004080B582B000AF78607B681B680D
:101F3C001B6903F00203022B22D17B681B68DB6850
:101F4C0003F00203022B1BD17B681B686FF00202AB
:101F5C001A617B6801221A777B681B689B6903F006
:101F6C000303002B03D0786800F0B4F905E078681F
:101F7C0000F0A7F9786800F0B6F97B6800221A77B0
:101F8C007B681B681B6903F00403042B22D17B685C
:101F9C001B68DB6803F00403042B1BD17B681B68F4
:101FAC006FF004021A617B6802221A777B681B6847
:101FBC009B6903F44073002B03D0786800F08AF916
:101FCC0005E0786800F07DF9786800F08CF97B68A2
:101FDC0000221A777B681B681B6903F00803082B27
:101FEC0022D17B681B68DB6803F00803082B1BD12C
:101FFC007B681B686FF008021A617B6804221A77F1
:10200C007B681B68DB6903F00303002B03D0786843
:10201C0000F060F905E0786800F053F9786800F09A
:10202C0062F97B6800221A777B681B681B6903F0D6
:10203C001003102B22D17B681B68DB6803F01003A4
:10204C00102B1BD17B681B686FF010021A617B6828
:10205C0008221A777B681B68DB6903F44073002B3A
:10206C0003D0786800F036F905E0786800F029F9BB
:10207C00786800F038F97B6800221A777B681B6857
:10208C001B6903F00103012B0ED17B681B68DB6815
:10209C0003F00103012B07D17B681B686FF0010271
:1020AC001A617868FEF77AFE7B681B681B6903F07F
:1020BC008003802B0ED17B681B68DB6803F08003E8
:1020CC00802B07D17B681B686FF080021A617868DF
:1020DC0000F06BFA7B681B681B6903F04003402B14
:1020EC000ED17B681B68DB6803F04003402B07D1E3
:1020FC007B681B686FF040021A61786800F0FCF88E
:10210C007B681B681B6903F02003202B0ED17B68B6
:10211C001B68DB6803F02003202B07D17B681B684E
:10212C006FF020021A61786800F036FA00BF0837A9
:10213C00BD4680BD80B584B000AF786039600023A7
:10214C00FB737B6893F83C30012B01D10223B4E084
:10215C007B68012283F83C207B68022283F83D20B7
:10216C007B681B689B68BB60BB6823F07703BB6014
:10217C00BB6823F47F43BB607B681B68BA689A60BA
:10218C003B681B68B3F5005F3ED0B3F5005F00F20F
:10219C008780B3F5805F00F08680B3F5805F7FD8D1
:1021AC00702B1AD0702B7BD8602B50D0602B77D82B
:1021BC00502B3CD0502B73D8402B58D0402B6FD881
:1021CC00302B64D0302B6BD8202B60D0202B67D8D1
:1021DC00002B5CD0102B5AD062E07B6818683B68EF
:1021EC0099683B685A683B68DB6800F05EF97B686D
:1021FC001B689B68BB60BB6843F07703BB607B6864
:10220C001B68BA689A604FE07B6818683B689968ED
:10221C003B685A683B68DB6800F047F97B681B68D1
:10222C009A687B681B6842F480429A603CE07B6849
:10223C0018683B6859683B68DB681A4600F0BEF8C2
:10224C007B681B685021184600F015F92CE07B6860
:10225C0018683B6859683B68DB681A4600F0DCF884
:10226C007B681B686021184600F005F91CE07B6850
:10227C0018683B6859683B68DB681A4600F09EF8A2
:10228C007B681B684021184600F0F5F80CE07B6871
:10229C001A683B681B681946104600F0ECF803E01E
:1022AC000123FB7300E000BF7B68012283F83D2013
:1022BC007B68002283F83C20FB7B18461037BD4618
:1022CC0080BD80B483B000AF786000BF0C37BD46D2
:1022DC0080BC704780B483B000AF786000BF0C370F
:1022EC00BD4680BC704780B483B000AF786000BF3F
:1022FC000C37BD4680BC704780B483B000AF7860AB
:10230C0000BF0C37BD4680BC7047000080B485B060
:10231C0000AF786039607B681B68FB607B68254A7E
:10232C00934207D07B68B3F1804F03D07B68224A7D
:10233C00934208D1FB6823F07003FB603B685B6839
:10234C00FA681343FB607B681A4A934207D07B6898
:10235C00B3F1804F03D07B68174A934208D1FB68D6
:10236C0023F44073FB603B68DB68FA681343FB6043
:10237C00FB6823F080023B685B691343FB607B685E
:10238C00FA681A603B689A687B68DA623B681A687C
:10239C007B689A627B68074A934203D13B681A694F
:1023AC007B681A637B6801225A6100BF1437BD46F3
:1023BC0080BC7047002C01400004004080B487B002
:1023CC0000AFF860B9607A60FB681B6A7B61FB68E0
:1023DC001B6A23F00102FB681A62FB689B693B6174
:1023EC003B6923F0F0033B617B681B013A691343A3
:1023FC003B617B6923F00A037B617A69BB681343F9
:10240C007B61FB683A699A61FB687A691A6200BF62
:10241C001C37BD4680BC704780B487B000AFF860F5
:10242C00B9607A60FB681B6A7B61FB681B6A23F0EE
:10243C001002FB681A62FB689B693B613B6923F4E1
:10244C0070433B617B681B033A6913433B617B69B7
:10245C0023F0A0037B61BB681B017A6913437B618A
:10246C00FB683A699A61FB687A691A6200BF1C378B
:10247C00BD4680BC704780B485B000AF78603960D1
:10248C007B689B68FB60FB6823F07003FB603A6819
:10249C00FB68134343F00703FB607B68FA689A60A0
:1024AC0000BF1437BD4680BC704780B487B000AF06
:1024BC00F860B9607A603B60FB689B687B617B6904
:1024CC0023F47F437B613B681A027B681A43BB6829
:1024DC0013437A6913437B61FB687A699A6000BF86
:1024EC001C37BD4680BC704780B485B000AF7860A7
:1024FC0039607B6893F83C30012B01D1022341E019
:10250C007B68012283F83C207B68022283F83D2003
:10251C007B681B685B68FB607B681B689B68BB60A7
:10252C00FB6823F07003FB603B681B68FA6813437D
:10253C00FB607B681B68FA685A607B681B68144AEE
:10254C00934209D07B681B68B3F1804F04D07B6841
:10255C001B68104A93420CD1BB6823F08003BB600C
:10256C003B685B68BA681343BB607B681B68BA68DE
:10257C009A607B68012283F83D207B68002283F8F7
:10258C003C20002318461437BD4680BC704700BF62
:10259C00002C01400004004080B483B000AF786090
:1025AC0000BF0C37BD4680BC704780B483B000AF11
:1025BC00786000BF0C37BD4680BC704770B50026F4
:1025CC000C4D0D4C641BA410A64209D100F022F84E
:1025DC0000260A4D0A4C641BA410A64205D170BDFE
:1025EC0055F8043B98470136EEE755F8043B9847FD
:1025FC000136F2E7682600086826000868260008FD
:10260C006C26000803460244934200D1704703F83D
:10261C00011BF9E7F8B500BFF8BC08BC9E46704733
:0C262C00F8B500BFF8BC08BC9E46704723
:10263800407924301912027800107F000000000051
:10264800000000000102030406070809020304054C
:10265800060708090A0B0C0D0E0F101001020000E6
:042668003101000834
:04266C000D01000854
:102670000305020301010100010101000101010044
:10268000010101000024F40010000000010000001E
:0400000508000FC11F
:00000001FF
